:1009D30021212044554E47204B48414E204341504E
:1009E300004E6861206E75742064652063686179C8
:1009F300200054616E67206869656E207461693AEE
:100A0300200053616E2073616E6720202020202018
:100A13002020004469206C656E202D3E2074616E99
:100A230067200044692078756F6E672D3E74616E90
:100A330067200044612064656E202D204D6F206384
:100A4300756120004D6F692076616F207468616E57
:100A530067202020004375612064616E6720646F06
:100A63006E67202020005448414E47204D415920B5
:100A7300342054414E470044616E67206B686F69B0
:080A830020646F6E672E2E0047
:100C9A00011000011D00011C0005080000000000F1
:100CAA0005110000000000010D00010EFFC101C185
:100CBA000002160000011B00011A000119FF0118A9
:040CCA00FF010FFE19
:090D0100E47F03FD120D2A7F01BD
:100D0A00E4FDFCC3ED9FEC9E5015E4FBFA0BBB001F
:0F0D1A00010AEB64784A70F50DBD00010C80E40E
:010D290022A7
:070EAE00E4FF000FBF28FB69
:010EB500221A
:100D2A00C2B4C2B3ED6003D38001C392B2EF540FD1
:100D3A0044F0F5800000D2B400000000C2B4020EF4
:010D4A00AEFA
:100D4B00AE07EEC4540FFFE4FD120D2AEE540FFF55
:100D5B00120D2AEED3940350077F037E00120D0A67
:010D6B002265
:100E2F00AE07EEC4540FFF7D01120D2AEE540FFFD3
:030E3F00020D2A77
:070E07007BFF120E427F0188
:0D0E0E00EF70047F8080027FC0120D4B2228
:100E4200120DBEFF600C120E2F740129F9E43AFA5A
:030E520080EE220D
:100CCF007F1E7E00120D0AE4FD7F03120D2A7F05A1
:100CDF00120D0A120D01120D01E40F120D047F28DF
:100CEF00120D4B7F0C120D4B7F06120D4B7F010225
:020CFF000D4B9B
:100DD700C3EF64809480400DD3EF64809484500502
:080DE700EF2430FF227F2D22D2
:10080000300025E518640670030208F7E4FF120EB5
:100810000E7A0979D3120E077BFF7A0979E4120E5A
:10082000427518067519FF22850D21850E22E51BDC
:10083000B401057523038029E51BB4020575230463
:10084000801FE51BB40305752305801530010FE5F6
:100850001D30E00575230180087523028003E4F54F
:1008600023E521B5190EE523B51809E522650F70BA
:10087000030208F7E52165196016E4FF120E0E7BEE
:10088000FF7A0979F5120E42AF21120DD7120E2F01
:10089000E523B51806E522650F60537F01120E0EA1
:1008A000E52314601514601A14602A14602F2404C0
:1008B00070337BFF7A0A790580317BFF7A0A7916DB
:1008C00080067BFF7A0A7926120E42AF22120DD7DC
:1008D000120E2F80197BFF7A0A7936800E7BFF7A01
:1008E0000A794780067BFF7A0A7958120E428521E1
:0708F0001985231885220F72
:0108F70022DE
:040EC400431D102298
:040EC800531DEF22A5
:060EBE00531DFCC20122DD
:0E0E7800531DFD431D01D201E4F516F51722AE
:0E0E8600531DFE431D02D201E4F516F517229E
:040ECC00531DF3229D
:100D8A00E51B7015120EC4531DF7431D04751C068E
:0A0D9A00431D20751A14751B012279
:0D0E9400120ECC120EC4751A14751B02222A
:100E6800120EC4531DFB431D08751A14751B03226B
:0D0EA100120ECC120EC8E4F51B750EFF22D8
:100D6C00ED601474112FF8E6701374082FF87601E7
:0E0D7C0074112FF876012274112FF8E4F6227C
:0C0C6200120EBE7408250DF87600AF0DD0
:100C6E00EF146012146014146016146018240470CB
:100C7E001753107F80125310B7800D5310DB80086E
:0C0C8E005310ED80035310FE8510A022CF
:100B1700E4FF2097040F431080E4FE2096040E4361
:100B270010082095057E01431040E4FC2094040C36
:100B37004310042093057C01431020E4FB2092041A
:100B47000B4310022091057B01431010E4FA20901B
:100B5700040A431001AD07E4FF120D6CAD060F1236
:100B67000D6CAD040F120D6CAD030F120D6CAD02C1
:070B77000F120D6C8510A0A8
:010B7E002254
:100C28007EFF7D64E4FC74082CF8E66026C3E50DBD
:100C38006480F8EC6480984006EC950DFF8005C34D
:100C4800E50D9CFFC3ED6480F8EF6480985004AD17
:090C580007AE040CBC05CFAF0689
:010C61002270
:100BDB00200049E51B70452001427408250DF8E6FD
:100BEB00600DE4F6AF0D120C6E750EFF020D8A123E
:100BFB000C28C3EF6480948040228F0ED3E50D64E4
:100C0B0080F8E50E6480984003020E78C3E50D640E
:0C0C1B0080F8E50E6480985003120E86ED
:010C270022AA
:100E1B0053890F438920758DFD758BFD759840C2E5
:040E2B0099D28E22A8
:080EB6008F993099FDC29922C9
:100DA400AE1DAD0D7FA5120EB6AF06120EB6AF0581
:0A0DB400120EB6EE6DF4FF020EB64B
:100E55005389F0438901758C4CE4F58AD2A9D2AF48
:030E6500D28C220A
:03000B000208F8F0
:1008F800C0E0C0D075D000C000C007758C4C758AA8
:100908000020B70DD200531DF0C201431D2002097B
:10091800CA30001AC200E51BB40105431D04800853
:10092800E51BB40303431D08531DDF751C00E51CBC
:10093800D394004006D51C03531DDFE51B602DE54D
:100948001AD39400407C151AE51A7076E51BB40199
:1009580006120E940209CAE51BB40205120E68803D
:1009680061E51B6403705B120EA1805630015305CC
:1009780017E51770020516C39428E516940040423F
:10098800751600751700E51D30E00CE50D648094C0
:10099800845014050D8010E51D30E10BD3E50D647E
:1009A8008094804002150DE50DB50E05120C62808D
:1009B8000E7408250DF8E66009120C62750EFF1218
:0B09C8000D8AD007D000D0D0D0E03264
:100B7F007580FF7590FFE4F5A075B0FFF510F51DBA
:100B8F00F51CC201C200F50D750EFFF516F517F530
:100B9F001BF51AF508F509F50AF50BF50CF511F526
:100BAF0012F513F514F515120CCFE4FF120E0E7A91
:100BBF000A7969120E077BFF7A0A797A120E427F41
:0C0BCF00207E03120D0A120E1B020E55B0
:100DEF00120B7F120B17120BDB120DA41208007FD0
:080DFF00147E00120D0A80EBC6
:03000000020A8B66
:0C0A8B00787FE4F6D8FD758123020AD2C2
:100DBE00BB010689828A83E0225002E722BBFE0233
:090DCE00E32289828A83E4932266
:100A9700020DEFE493A3F8E493A34003F68001F279
:100AA70008DFF48029E493A3F85407240CC8C33360
:100AB700C4540F4420C8834004F456800146F6DF2F
:100AC700E4800B0102040810204080900C9AE47E19
:100AD700019360BCA3FF543F30E509541FFEE49324
:100AE700A360010ECF54C025E060A840B8E493A3EB
:100AF700FAE493A3F8E493A3C8C582C8CAC583CA16
:100B0700F0A3C8C582C8CAC583CADFE9DEE780BECD
:010CCE000025
:00000001FF
