:0509E700C0F9A4B09965
:10099500010C00010A00010900010800010D00C158
:0409A50000010B142E
:0E09CF00EFD394045007EF9009E793F58022D0
:10088C00EF30E00F20E10CD2B5C2B6D2B7D2A0C285
:10089C00A2801DEF30E10F20E00CC2B5D2B6D2B76A
:1008AC00C2A0D2A2800AC2B5C2B6C2B7C2A0C2A2AE
:1008BC00EF30E20B20E308D2B2C2B3D2B48015EF12
:1008CC0030E30B20E208C2B2D2B3D2B48006C2B27B
:1008DC00C2B3C2B4EF30E403D38001C392A1EF30B2
:0908EC00E503D38001C392A322AD
:1009AA0053890F438920758DFD758BFD759850D23B
:0409BA008ED2AC220B
:1009BE005389F0438901758C4CE4F58AD2A9D28C07
:0109CE002206
:03000B0002097D6A
:10097D00C0E0C0D0758C4C758A00E50BC394FF5058
:08098D0002050BD0D0D0E032CE
:030023000208F5DB
:0908F500C0E0C0D075D000C007BE
:1008FE0030983DC298AF99E50C700AEF64A5703040
:10090E00750C01802BE50CB401078F0A750C028063
:10091E001FE50CB402078F09750C038013E50A65F9
:10092E0009F4B50708850A0885090DD200750C0073
:05093E00309902C2998E
:07094300D007D0D0D0E03254
:0A09DD007580BFE4F5A075B0032299
:10094A001209DDE4FF12088C1209AA1209BED2AFFD
:10095A0030000FC200E4F50BAF0812088CAF0D127D
:10096A0009CFE50BC3941440E7E4FF12088C7580A5
:03097A00BF80DD5E
:03000000020800F3
:0C080000787FE4F6D8FD758120020847DF
:10080C0002094AE493A3F8E493A34003F68001F2AF
:10081C0008DFF48029E493A3F85407240CC8C333ED
:10082C00C4540F4420C8834004F456800146F6DFBC
:10083C00E4800B0102040810204080900995E47EAE
:10084C00019360BCA3FF543F30E509541FFEE493B1
:10085C00A360010ECF54C025E060A840B8E493A378
:10086C00FAE493A3F8E493A3C8C582C8CAC583CAA3
:10087C00F0A3C8C582C8CAC583CADFE9DEE780BE5B
:0109A900004D
:00000001FF
